:020000040040BA
:10000000F824402075084000710840007108400045
:1000100071084000710840007108400000000000B5
:100020000000000000000000000000007108400017
:100030007108400000000000710840007108400095
:1000400071084000710840007108400071084000CC
:1000500071084000710840007108400071084000BC
:1000600071084000000000002D04400041044000E1
:1000700055044000710840007108400071084000BC
:10008000690440007D044000710840007108400090
:10009000710840007108400071084000710840007C
:1000A000710840007108400071084000710840006C
:1000B000710840007108400071084000D50A4000F6
:1000C000710840007108400071084000710840004C
:1000D00000000000710840000000000071084000AE
:1000E000710840007108400071084000710840002C
:1000F000710840007108400071084000710840001C
:10010000710840007108400071084000710840000B
:100110007108400000000000000000000000000026
:1001200071084000710840007108400071084000EB
:100130007108400000000000710840007108400094
:1001400010B5054C237833B9044B13B10448AFF311
:1001500000800123237010BD300440200000000007
:10016000680D4000084B10B51BB108490848AFF3B3
:1001700000800848036803B910BD074B002BFBD073
:10018000BDE81040184700BF0000000034044020C4
:10019000680D4000680D40000000000010B51048D8
:1001A000104B98473E2100200F4B98470F4CA0471B
:1001B0000028FCD00E4B98470E4A0F4B9A620F4C0A
:1001C000A0470028FCD002200D4B984700200D4B83
:1001D00098470D4B98470248024B984710BD00BF07
:1001E00000A3E111610A4000350540008905400087
:1001F00099054000013F182000060E40A905400067
:1002000091044000CD04400051094000F8B54FF47E
:100210000042684B5A60BFF34F8FBFF36F8F664B3E
:100220000022C3F850225A6942F400325A61BFF3E7
:100230004F8FBFF36F8FD3F88060C6F34E3506F053
:1002400007070437C6F3C906B6FA86F000F01F00A8
:10025000BFF34F8F1C46334605FA07F103FA00F24D
:100260000A43C4F86022013BB3F1FF3FF6D1013DE0
:10027000B5F1FF3FEFD1BFF34F8F4F4B5A6942F4B7
:1002800080325A61BFF34F8FBFF36F8F4B4A4C4997
:100290005160A1F580715160BFF34F8FBFF36F8F35
:1002A000D3F8902222F00102C3F89022D3F89422CE
:1002B00022F00102C3F89422BFF34F8FBFF36F8F78
:1002C0000A20404CA0470B20A0470C20A04710203C
:1002D000A0471120A0473C4B4FF480721A61C3F82D
:1002E000A0201A63A3F580634FF400625A61C3F83B
:1002F000A0205A66C3F890205A651A62C3F8842079
:10030000196F21F400611967596F21F40061596771
:10031000C3F8C020C3F8D420C3F8B0204FF40012B3
:100320001A66C3F890205A655A62C3F88020196F84
:1003300021F400111967596F21F4001159675A60AF
:100340002249D1F8142142F01002C1F81421204AA8
:1003500010211166C2F8901051655162C2F88010E8
:10036000106F08431067506F0843506751604FF497
:1003700000021A66C3F890205A655A62C3F88020BA
:10038000196F11431967596F21F4000159675A60B9
:100390004FF080721A66C3F890205A655A62C3F80B
:1003A0008020196F11431967596F21F080715967C7
:1003B0005A60F8BD50180E4000ED00E0000C0E40F1
:1003C0000C08005AB905400000120E400080084099
:1003D00000100E40C06C7047806C70472DE9F041F2
:1003E000044688460E4B9847054620460D4B9847D5
:1003F000054013D00C4C04F160062368434508D136
:100400006168294205D0E36840469847636825EA59
:100410000305B44202D01034002DEED1BDE8F081C6
:10042000D5034000D90340004C04402008B50A2100
:100430000148024B984708BD000E0E40DD03400006
:1004400008B50B210148024B984708BD00100E402B
:10045000DD03400008B50C210148024B984708BD58
:1004600000120E40DD03400008B510210148024B88
:10047000984708BD00140E40DD03400008B5112167
:100480000148024B984708BD00160E40DD034000AE
:10049000032807D0042808D002280CBF4FF480722C
:1004A000002204E04FF4407201E04FF4007206496C
:1004B0000B6B23F4407313430B630A46936E13F0E4
:1004C000080FFBD0704700BF00060E40184A136BA0
:1004D00023F0700318431063936E13F0080F03D0DA
:1004E00009E0013B03D11EE04FF4805310498A6EAE
:1004F00012F0080FF5D00E4A136B23F0030343F0FC
:1005000002031363906E10F0080004D000207047BF
:10051000013B03D109E04FF4805305498A6E12F084
:10052000080FF5D07047012070470120704700BFC9
:1005300000060E4038B10E490B6A0E4A1A400E4BA7
:1005400013430B6270470A48036A090289B20B4AD7
:100550001A400B4B1343194301620246936E13F08A
:10056000010FFBD0024A116A064B0B43136270471E
:1005700000060E40FCFFC8FE02003701FCFFC8FF6A
:100580000100370000003701024B986E00F4803004
:10059000704700BF00060E404FF00052014B9A62B8
:1005A000704700BF00060E40024B986E00F002003C
:1005B000704700BF00060E403F281ED81F280CD8E9
:1005C000114B9A6901238340934318D0012303FA06
:1005D00000F00D4B18610020704720380A4BD3F80B
:1005E00008210123834093430BD0012303FA00F039
:1005F000054BC3F800010020704701207047002020
:1006000070470020704700BF00060E40F0B48CB069
:1006100007460E4601AC114D0FCD0FC40FCD0FC4D0
:1006200095E8070084E8070001AA002052F8043B7F
:10063000B6FBF3F3B3FBF7F3B3F5807F05D90130D5
:100640000B28F3D14FF6FF7005E00A2894BF43EA68
:1006500000204FF6FF700CB0F0BC7047100D40004A
:1006600070B506460C46086840B189680E4B98473D
:1006700005464FF6FF73984201D10EE000256068F1
:1006800040B1A168084B98474FF6FF73984207D0D6
:1006900045EA00453560002070BD4FF6FF7070BD23
:1006A0004FF6FF7070BD00BF0D06400070B40B68C0
:1006B0004A6802F00F028C8A22430C8922438C7A0A
:1006C00042EA44228C7D42EA0442CC7D42EA444222
:1006D0000C7E42EA844200EB4314C4F80022CA684C
:1006E000C4F804220A69C4F80C228A7D3AB18C8BC2
:1006F0004A8B42EA044200EB4314C4F81822846C8B
:100700004FF001129A40D24304EA0205CC7F04FA6A
:1007100003F68C7F9C4044EA06442C438464446C7A
:10072000224091F8214004FA03F591F820409C40C2
:1007300044EA05442243426401229A4091F822404F
:100740001CB1046A1443046203E0046A24EA02044C
:10075000046291F82440022C05D1D0F8C040144323
:10076000C0F8C0400DE0D0F8C040D5432C40C0F8E0
:10077000C04091F82440012C846E0CBF14432C40DF
:10078000846691F82540022C06D1D0F8C04044EA96
:100790000242C0F8C02011E0D0F8C0401204D54396
:1007A0002C40C0F8C04091F82540012C03D1846E44
:1007B0002243826602E0826E2A408266DB00C56EBA
:1007C000FF229A4025EA020491F823209A4022430E
:1007D000C26653B991F82C20012A8A6A22F07F421E
:1007E00008BF42F08072C0F8A02000EB4310D0F8A0
:1007F000003223F40023C0F80032D0F800228B6BC3
:1008000003F400231343C0F80032002070BC70478B
:100810000B69934207D30B68CA6000EB4310C0F822
:100820000822002070474FF6FF707047012303FA3B
:1008300001F14160704700BF012303FA01F18160BB
:10084000704700BFC06970471032012303FA02F2FB
:1008500003FA01F111430161704700BF1032012317
:1008600003FA02F203FA01F111434161704700BF3C
:10087000FEE700BF00B583B0274B284A9A4203D059
:10088000274B254A9A4204D3264B274A9A420FD334
:100890001AE02149254B5B1A23F0030304331F4A56
:1008A000134452F8040B41F8040B9A42F9D1EBE7D8
:1008B0001F4B204AD21A22F003021A44043B0021A3
:1008C00043F8041B9342FBD11B4A1C4B23F07F03CC
:1008D0009360EFF31083B3FA83F35B09019372B66D
:1008E000BFF35F8F0022164B1A700199154A1368E7
:1008F00043F470031360BFF34F8FBFF36F8F29B1C1
:1009000001220F4B1A70BFF35F8F62B60E4B9847F0
:100910000E4B9847FEE700BF00004020680D4000E6
:1009200030044020F8044020300440202F044020B0
:1009300034044020FB04402000ED00E000004000B3
:100940000000402088ED00E0D50B4000B90B4000CE
:100950003C4B1B6B03F00303012B0FD013B1022B95
:1009600029D057E0384B5B6913F0800F14BF4FF468
:1009700000424FF4FA42354B1A604BE0314B1B6A90
:1009800013F0807F03D0324A304B1A6042E0314A84
:100990002E4B1A602B4B1B6A03F07003102B02D0F6
:1009A000202B04D036E02C4A284B1A6032E0284A2B
:1009B000264B1A602EE0234B1B6A13F0807F03D076
:1009C000234A224B1A6012E0224A204B1A601D4B28
:1009D0001B6A03F07003102B02D0202B04D006E01A
:1009E0001D4A1A4B1A6002E0194A184B1A60154B3F
:1009F0001B6B03F00303022B0CD1124A936A926A19
:100A00001248C3F30A41036801FB0333D2B2B3FBBC
:100A1000F2F303600B4B1B6B03F07003702B07D1D9
:100A20000A4A13680D49A1FB03135B081360704762
:100A3000044B1B6B0549C3F302120B68D3400B60D8
:100A4000704700BF00060E4010180E400400402002
:100A5000001BB70000093D0000127A00ABAAAAAA49
:100A6000124B984204D84FF08062114B1A607047C5
:100A7000104B984203D8104A0D4B1A6070470F4B29
:100A8000984203D80E4A0A4B1A6070470D4B9842A1
:100A900003D80D4A064B1A6070470C4B984294BF1E
:100AA0004FF004220A4A024B1A607047FF2C3101B2
:100AB000000C0E40FF59620200010004FF86930300
:100AC00000020004FFB3C40400030004FFE0F505C6
:100AD0000005000410B5054C2046054B9847054914
:100AE00001220A602046044B984710BD00000240D6
:100AF00045084000BC044020110840002DE9F041A9
:100B000084B01F20214B9847214C01212046214BC6
:100B1000984742F210730193002602961E4B0393EE
:100B200001A920461D4B98471D4D29462046DFF858
:100B30008480C0473246314620461A4B98474FF4CE
:100B400080732B810127AF720B236B6064232B61B1
:100B5000EE602F6029462046C0473246394620467F
:100B6000114B9847114B4FF00042C3F88020C3F857
:100B7000802183F81F631A60314620460C4DA84738
:100B800039462046A84704B0BDE8F081B9054000C9
:100B9000000002403908400000A3E1116106400056
:100BA000BC044020490840005D08400000E100E02E
:100BB0002D084000AD06400008B5034B9847034B95
:100BC0009847034B9847FEE79D0140000D02400007
:100BD000FD0A400070B50F4E0F4D761BB61018BFC2
:100BE000002405D0013455F8043B9847A642F9D1BA
:100BF0000A4E0B4D761B00F0A5F8B61018BF002466
:100C000006D0013455F8043B9847A642F9D170BD8F
:100C100070BD00BF500D4000500D4000580D400009
:100C2000500D4000024B13B1024800F005B8704768
:100C300000000000450C4000002301461A461846FB
:100C400000F014B838B5074D074C2C1BA41005D084
:100C5000013C55F8043D9847002CF9D1BDE83840D7
:100C600000F07AB8680D4000640D40002DE9F047AF
:100C7000254C2568D5F8484106468846924699464F
:100C8000C4B360681F2817DC431C76B104EB8005F1
:100C90000122C5F888A0D4F8881182401143022EA1
:100CA000C4F88811C5F808911ED00230636044F87A
:100CB00020800020BDE8F087144B03B34FF4C870C8
:100CC000AFF300800446D0B1D5F84831002780E862
:100CD0008800C5F8484138460123C4F88871C4F833
:100CE0008C71002EE1D0D1E7D4F88C110A43C4F8FE
:100CF0008C21DAE705F5A674C5F84841C1E74FF045
:100D0000FF30BDE8F08700BF400D4000000000004C
:100D100001000000020000000400000008000000C4
:100D200010000000200000004000000080000000D3
:100D30000001000000020000000400004300000069
:100D400008004020F8B500BFF8BC08BC9E467047BC
:100D5000250C400065014000F8B500BFF8BC08BC98
:080D60009E467047410140006E
:100D68000100000000093D0000000000F4024020DE
:100D78005C034020C4034020000000000000000085
:100D8800000000000000000000000000000000005B
:100D98000000000000000000000000003C0D4000C2
:100DA800000000000000000000000000000000003B
:100DB800000000000000000000000000000000002B
:100DC800000000000000000000000000000000001B
:100DD800000000000000000000000000000000000B
:100DE80000000000000000000000000000000000FB
:100DF80000000000000000000000000000000000EB
:100E080000000000000000000000000000000000DA
:100E180001000000000000000E33CDAB34126DE677
:100E2800ECDE05000B0000000000000000000000E0
:100E380000000000000000000000000000000000AA
:100E4800000000000000000000000000000000009A
:100E5800000000000000000000000000000000008A
:100E6800000000000000000000000000000000007A
:04000005004008753A
:00000001FF
