:020000040040BA
:1000000018304020093C4000053C4000053C4000C1
:10001000053C4000053C4000053C4000000000005D
:10002000000000000000000000000000053C40004F
:10003000053C400000000000053C4000053C40003D
:10004000053C4000053C400015434000053C400095
:10005000053C4000053C4000053C4000053C40009C
:10006000053C400000000000F53640000937400024
:100070001D374000053C4000053C4000053C400069
:100080003137400045374000053C4000053C40000A
:10009000053C4000053C4000053C4000053C40005C
:1000A000053C4000053C4000053C4000053C40004C
:1000B000053C4000053C4000053C4000053C40003C
:1000C000053C4000053C4000053C4000053C40002C
:1000D00000000000053C400000000000053C40001E
:1000E000053C4000053C4000053C4000053C40000C
:1000F000053C4000053C4000053C4000053C4000FC
:10010000053C4000053C4000053C4000053C4000EB
:10011000053C40000000000000000000000000005E
:10012000053C4000053C4000053C4000053C4000CB
:10013000053C400000000000053C4000053C40003C
:1001400010B5054C237833B9044B13B10448AFF311
:1001500000800123237010BD8408402000000000AF
:1001600030924000084B10B51BB108490848AFF366
:1001700000800848036803B910BD074B002BFBD073
:10018000BDE81040184700BF00000000880840206C
:1001900030924000309240000000000021B14368DE
:1001A00043F0010343607047436823F00103436059
:1001B000704700BF0162704730B485688468A5420B
:1001C00003D084688568A542FBD161B1C4F30150B6
:1001D00000EB8005C4F3034000EB450014F4800FEE
:1001E00018BF0C30086042B1C4F3023101EB810149
:1001F000C4F3032000EB4101116043B1C4F30212C8
:1002000002EB820204F00F0404EB42041C6030BCD9
:10021000704700BFF0B4446814F0010F05D00C29FA
:1002200003D90C394FF4800600E000261C4CA4FBD7
:100230000357FF0807EB8705A3EB450343EA0713C2
:10024000A4FB0275ED0843EA053305EB8505A2EB37
:10025000450243EA02223243A4FB0143DB0842EA9F
:10026000035203EB8303A1EB430342EA0341036818
:1002700043F001030360836913F0010FFBD00123F6
:10028000C3618160036823F001030360C36943F025
:100290000403C361C06A00F00100F0BC704700BFF6
:1002A000CDCCCCCCF0B4049C069DB9B1416811F022
:1002B000010F05D00C2A03D90C3A4FF4800700E057
:1002C00000271B49A1FB0261C90801EB8106A2EBD3
:1002D0004602120442EA01523A4300E000225BB1B6
:1002E000134BA3FB0413DB0803EB8301A4EB4104D2
:1002F000240244EA03342243059B53B10C4BA3FB75
:100300000513DB0803EB8301A5EB410545EA031365
:100310001A430169074B0B40036102610269064BF6
:1003200013430361C06A00F00400F0BC704700BFD3
:10033000CDCCCCCC7F7F7FFF80808000F0B52A4E73
:10034000A6FB034E4FEADE0E059C640544EA0E77D9
:100350000EEB8E0EA3EB4E0547EA0565A6FB0243A6
:10036000DB0845EA035503EB8303A2EB430345EAAD
:1003700003441E4BA3FB01239B0944EA03121C4CBC
:10038000A4FB01346309A6FB0354E40804EB8404D2
:10039000A3EB44031343A6FB0124E40804EB84020B
:1003A000A1EB420243EA0223A6FB0426F60806EB71
:1003B0008606A4EB460643EA0632036843F00203CE
:1003C0000360836913F0010FFBD00123C361C26096
:1003D000036823F002030360C36943F00403C361AD
:1003E000C06A00F00200F0BDCDCCCCCCD34D621081
:1003F0001F85EB5130B4029C59B11449A1FB025145
:10040000C90801EB8105A2EB4502120442EA015240
:1004100000E000225BB10D4BA3FB0413DB0803EBF0
:100420008301A4EB4104240644EA03742243416996
:10043000074B0B40436142614269064B13434361E2
:10044000C06A00F0080030BC704700BFCDCCCCCCF7
:10045000FFFF7F7F0000808080697047C161704727
:1004600038B5054608201D4B984704461C492846C8
:100470001C4B984740B91A491B481C4B984701230D
:1004800023700023636027E019492846154B9847DD
:1004900040B917491448154B98470223237000238D
:1004A000636019E0134928460E4B984720B9012391
:1004B0002370114B63600FE010492846104B98479A
:1004C00030B105300F4B984760601023237003E074
:1004D000FF23237000236360204638BDB5454000EC
:1004E000387F4000094E4000407F40008D4540006D
:1004F000487F4000507F40005C7F4000647F4000A8
:10050000955440000905400010B5044602200A4BEE
:1005100098472378303B03EB83036278303A02EB51
:1005200043030370E378303B03EB83032279303AD3
:1005300002EB4303437010BDB545400030B583B0B6
:100540000220134B9847134C00212046124B98472A
:100550000D2300931B23032240F2E17120460F4D2F
:10056000A84700230522092120460D4DA8470D4B21
:100570000422C3F88020C3F88021202183F80213CD
:100580001A6002212046084B984703B030BD00BFD7
:100590000539400060180E409D0140003D034000B9
:1005A0001502400000E100E0B501400070B586B0E2
:1005B0000446164D1B2300930123032219462846A7
:1005C000134EB04706462278002302930121019181
:1005D000637800930B4628460E4DA84780B97EB934
:1005E000627821780C480D4CA047002305AA04A985
:1005F00006480B4DA847059A04990A48A04702E00F
:1006000009480A4B984706B070BD00BF60180E40FD
:10061000F5034000A50240006C7F40008D4540007E
:10062000B90140008C7F4000AC7F4000514C40003D
:10063000102808D1B1F1805F05D108B5024B1B68C5
:1006400003B1984708BD7047A008402040B170B57D
:100650000446044E044D3046A847013CFBD170BD12
:10066000704700BF35160300010040202DE9F0411E
:10067000094F4FF40038C7F83480084D08266E63E0
:100680006420074CA047C7F830806420A0472E6341
:100690006420A047BDE8F08100120E4000100E401B
:1006A0004D06400010B50022144B1A600A20144C6D
:1006B000A0470B20A0470C20A0471020A0471120E6
:1006C000A047104B08221A61C3F8A0201A630E4AF3
:1006D0004FF400311161C2F8A010116304221A61B5
:1006E000C3F8A0201A63094B1B6813F0010F01D057
:1006F000064B1B68064B9847002010BDA008402001
:100700000539400000100E4000120E4010E000E0DD
:100710006D06400030B583B0144B18601020144BA8
:1007200098474FF020517C20124B9847124C0122E1
:100730004FF080512046114B9847114B00935123A5
:100740004FF08052102120460E4DA8474FF08051A7
:1007500020460D4B98474FF480320C4B1A60002214
:10076000102120460A4B984703B030BDA008402016
:10077000053940000535400000140E40C1334000EB
:100780003106400089364000F534400000E100E0C9
:100790005937400008B528B14FF080510448054B47
:1007A000984708BD4FF080510148034B984708BD5A
:1007B00000140E40F5344000F9344000F8B5394CCF
:1007C0004FF480112166C4F8901061656162C4F82D
:1007D0008010236F0B432367636F23F480136367D9
:1007E0004FF400122266C4F8902062656262C4F879
:1007F0008020236F13432367636F23F40013636721
:100800004FF480032366C4F8903063656362C4F8D4
:100810008030206F18432067606F20F4800060678D
:100820006160626063604FF00076666026602661FA
:1008300026631D4D28461D4B984702232B608023BD
:100840002B606B6843F001036B606B6843F010032F
:100850006B6001212846164B98470022012128464B
:10086000144B9847012211462846134B9847002203
:1008700001212846114B984711491248124B9847BD
:10088000C2B201212846114B984700231A46012184
:1008900028460F4FB84701232B6026630D4B98471E
:1008A0000020F8BD00140E4000800040593940007F
:1008B00085394000093A4000293A4000493A400051
:1008C00000A3E111006CDC025D3A4000753A400083
:1008D000A13A40006D0640002DE9F04F83B0032897
:1008E00041D10E684D680C8900238DF80430ADF8B5
:1008F000063036B1002D33D14FF00108994601ADD5
:1009000004E04FF000084FF0010901AE4FF0007213
:100910001C4B5A63F4B11C4FDFF884B0DFF884A09D
:1009200000231A4631783846D8470DF105020DF1FB
:1009300006013846D047BDF806302B70013CA4B202
:10094000B8F1000F00D10135B9F1000F00D1013627
:10095000002CE5D14FF000720A4B1A6300200EE024
:100960006FF005000BE040F21F1208490848094CDF
:10097000A0470948A0470948A0474FF0FF3003B0FF
:10098000BDE8F08F00140E4000800040C07F4000A2
:10099000D07F40008D454000E47F4000FC7F400058
:1009A000D13940009D39400002220E4B1A6003F5F8
:1009B000592303F580634FF400125A61C3F8A02055
:1009C0004FF480125A61C3F8A0204FF480025A619C
:1009D000C3F8A0204FF000725A61C3F8A020002095
:1009E000704700BF008000403AB10139821811F809
:1009F000013F00F8013B9042F9D1704722B18218C3
:100A000000F8011B9042FBD1704700BF03460278FB
:100A10003AB10020013080B213F8012F002AF9D139
:100A200070470020704700BF024A13780133DBB2E1
:100A300013707047AC084020704700BF00B583B00A
:100A400001200B4B984701A941F27000094B9847D0
:100A5000034640B9019941F00201019141F2700051
:100A6000054B98470346184603B05DF804FB00BFEA
:100A700095074000051D4000111D400008B5114BB1
:100A80001B7813F0FF0F15D10F4B1B78DBB2032B34
:100A900004D00D4B1B78DBB2042B0BD10B4B9847CA
:100AA000034668B945F2786141F27400084B9847F3
:100AB000034628B9034A13780133DBB213700023CD
:100AC000184608BDC8084020B808402075184000E6
:100AD000111D400000B583B01D4B1B7813F0FF0FB4
:100AE00004D01B4A1378013BDBB21370184B1B7800
:100AF00013F0FF0F25D1174B1B78DBB2032B04D06B
:100B0000144B1B78DBB2042B1DD10023019344F25C
:100B1000213141F27400104B98470346A0B901A956
:100B200001200E4B9847034670B9019911F0020F4E
:100B30000AD021F0020101910120074B984703469A
:100B400002E0002300E00023184603B05DF804FB38
:100B5000C8084020B8084020111D4000051D400075
:100B60002DE9F04F87B080460F4692469946109C7B
:100B7000BDF84460BDF8485001F07F038DF8153092
:100B80008DF814000823ADF8163044B1BDF81630C6
:100B900016FA83F32B449BB2ADF8163006E0BDF88D
:100BA000163019FA83F39BB2ADF81630574B9847BD
:100BB0008346002840F0958000230393ADF806306B
:100BC0000293029B48EA03030293029B43EA07272E
:100BD0000297BDF81620029B43EA02430293029952
:100BE00041F28C004A4B98478346002840F08A80A7
:100BF00000230293029B43F002030293029941F205
:100C00007800434B9847834600287BD10023039309
:100C1000ADF80630BDF806309BB2B3F57A7F1ED230
:100C200041F278083B4F02A94046B847B8B9029B49
:100C300013F0020F07D103A93748364B984770B11C
:100C4000002303930BE0BDF8063001339BB2ADF8EF
:100C50000630BDF806309BB2B3F57A7FE3D3039B31
:100C6000002B4DD0039B0493BDF816309BB2ADF81A
:100C700016300498082205A9284B98478346002877
:100C800040D1049B08330493BAF1000F0AD00498B2
:100C90004A465146214B98478346002832D1049B4F
:100CA0004B44049374B1049BC9EB05051D440495A2
:100CB000049832462146194B9847834610BB049B43
:100CC0001E440496039B9B000293029B43F0020385
:100CD0000293029941F26C000D4B9847834688B904
:100CE0000AE040F29F120E490E480F4CA0470F48F1
:100CF000A0470F48A04705E00E4B9847834601E008
:100D00006FF0020B584607B0BDE8F08F7D0A400037
:100D1000111D4000051D4000000415007D1D400010
:100D200058824000D07F40008D4540001480400034
:100D3000FC7F4000D50A40002DE9F04387B0DFF882
:100D4000FC92A34FDFF8F882A24E7BE199F80030C5
:100D5000013BDBB289F80030B8470446002840F078
:100D60001A8103A941F270009B4B98470446002862
:100D700040F00681039B13F0010F00F0F580974BC4
:100D80009847039921F00101039141F27000944BBF
:100D900098470446002840F00E810022914B1A70BB
:100DA000039DC5F38B05002D00F0D18006A941F805
:100DB000042D41F28400884B9847044668B14FF4F3
:100DC000E77241463046884DA8478848A84788487A
:100DD000A8470120814B9847EBE0042204A905981D
:100DE000844B9847BDF812309BB2ADF812300446E0
:100DF00068B14FF4EB72414630467B4DA8477E48C0
:100E0000A8477B48A8470120744B9847D1E0BDF81C
:100E100012309BB29D421ED0BDF812309BB2EB1A2D
:100E2000042B18DD40F2DF12414630466E4CA047DD
:100E3000BDF812209DF810309DF81110009192B26B
:100E400029466E48A0476A48A0470120634B98474F
:100E50006FF00504ADE09DF81030DBB2012B0DD131
:100E6000674B1B68002B60D09DF81100BDF8121075
:100E70000839059A083289B2984756E09DF8103033
:100E8000DBB2022B0DD15F4B1B68002B4DD09DF8C0
:100E90001100BDF812100839059A083289B2984736
:100EA00043E09DF81030DBB2042B0DD1564B1B688C
:100EB000002B3AD09DF81100BDF812100839059AA0
:100EC000083289B2984730E09DF81030DBB2062B2B
:100ED0000CD14E4B1B6843B39DF81100BDF81210A6
:100EE0000839059A083289B298471EE09DF81030FB
:100EF000DBB2072B0CD1464B1B68B3B19DF8110038
:100F0000BDF812100839059A083289B298470CE0EA
:100F100040F2022241463046334CA0473D48A047AC
:100F20003348A0476FF0050443E02E4B1B7813F0C5
:100F3000FF0F3BD140F20922414630462A4CA047E0
:100F40003548A0472A48A047344B98472EE040F246
:100F5000112241463046244CA0473148A04724483E
:100F6000A0476FF0010426E04FF406724146304678
:100F70001D4CA04703992B48A0471D48A04715E0EA
:100F800040F21E2241463046174DA8472648A84742
:100F90001748A8470FE04FF4097241463046124DFA
:100FA000A8472248A8471248A84704E0204B984782
:100FB0000446002C46D040F243221E4930460A4DDA
:100FC000A84721461C48A8470948A847C4E600BFCF
:100FD0007D0A4000D07F4000051D4000950740007D
:100FE000111D4000C00840208D4540003480400065
:100FF000FC7F40001D1D40005C804000748040006C
:10100000A8084020BC084020C4084020A408402074
:10101000B4084020B4804000CC8040003D0A40002D
:10102000F080400004814000208140004481400065
:10103000D50A40006482400064814000AC08402032
:101040000080400099F8003013F0FF0F7FF47EAE6F
:10105000002007B0BDE8F0832DE9F04383B01C46C3
:10106000002A18BF002903D005460F461646A0B92E
:1010700034B10122314B1A70314B9847034658E086
:1010800040F269222F493048304CA0473048A047F1
:101090003048A0476FF00B034BE0694641F2700007
:1010A0002D4B98470346002843D1DDF8008001A965
:1010B00041F28400284B98470346002839D1C8F3F1
:1010C0008B0846450ED940F27A221E491E481F4C15
:1010D000A047424631462148A0471E48A0476FF02E
:1010E0000B0326E0019B9D4204D305EB0609434414
:1010F00099450CD94FF4207212491348134CA0475C
:101100001748A0471348A0476FF00B0311E0324681
:1011100039462846134B9847034650B9019A424432
:101120004A4500D02CB10122044B1A70044B984759
:101130000346184603B0BDE8F08300BFC008402056
:101140003D0A400008804000D07F40008D454000AF
:1011500094814000FC7F4000051D4000B4814000A8
:10116000F88140001D1D400038B5431E062B1DD8D8
:10117000DFE803F00804100C1C141800134B19606E
:10118000002038BD124B1960002038BD114B19608A
:10119000002038BD104B1960002038BD0F4B19607E
:1011A000002038BD0E4B1960002038BD044640F2C7
:1011B000B9220C490C480D4DA84721460C48A847B8
:1011C0000C48A8476FF00B0038BD00BFBC0840209A
:1011D000A8084020C4084020B0084020A4084020AF
:1011E000B408402048824000D07F40008D45400038
:1011F0003C824000FC7F400010B50024094B1C607D
:10120000094B1C60094B1C70094B1C70094B1C706E
:1012100009480A4B98470A4903200A4B9847204639
:1012200010BD00BFA8084020BC084020C8084020CE
:10123000B8084020AC084020290A400015074000AB
:10124000390A40006911400030B59FB015462C287E
:1012500011D10023042203A92846904CA04700285E
:1012600040F019818E4B1B68002B00F0148103A9FC
:101270002C2098470FE104461B2811D10023082297
:1012800003A92846854CA047002840F00481844BE0
:101290001B68002B00F0FF8003A91B209847FAE091
:1012A000062811D10123302203A928467B4CA047F0
:1012B000002840F0F0807A4B1B68002B00F0EB8098
:1012C00003A906209847E6E00E2800F0E4803228C3
:1012D00011D10023102203A92846704CA0470028F2
:1012E00040F0D9806E4B1B68002B00F0D48003A91E
:1012F00032209847CFE02F2816D16422002103A87E
:10130000684B98470023642203A92846634CA047F2
:10131000002840F0C080624B1B68002B00F0BB80AF
:1013200003A92F209847B6E0342820D100230422B7
:1013300003A92846594CA047002840F0AC805A48E1
:101340005A4CA04703990B0E0093C1F30743C1F316
:101350000722C9B25648A0475648A047504B1B68C1
:10136000002B00F0988000213420984793E011284A
:1013700016D10023504A1370042203A92846474C73
:10138000A047002840F087809DF80C204B4B1A7036
:10139000434B1B68002B7ED003A9112098477AE0AD
:1013A00013280FD100232C2203A928463B4CA04729
:1013B000002870D13A4B1B68002B6CD003A9132076
:1013C000984768E004280FD1002304221CA928466E
:1013D000324CA04700285ED1314B1B68002B5AD0FD
:1013E0001CA90420984756E065280FD10023042249
:1013F0001CA92846294CA04700284CD1284B1B6823
:10140000002B48D01CA96520984744E009280FD13B
:101410000123642203A92846204CA04700283AD182
:101420001F4B1B68002B36D003A90920984732E0D8
:101430002A280DD10123042203A92846174CA047CE
:1014400048BB174B1B6833B303A92A20984722E0F7
:10145000202815D10023082203A928460F4CA047B5
:10146000C8B90123BDF81020039905F10800A04771
:1014700088B90B4B1B6873B103A9202098470AE079
:101480004FF495720E490F48084DA84721460E4863
:10149000A8470848A8471FB030BD00BF59104000FA
:1014A000CC084020FD094000948240008D4540005A
:1014B000A0824000FC7F4000D0084020D10840209E
:1014C00088824000D07F4000C0824000F0B58BB0E1
:1014D00001238DF8073000284ED00268294B1A608E
:1014E0000022294B1A700DF10700284B984704463B
:1014F000002843D1264B98470446002838D1254977
:101500000120254B984702A8244B98470446244FB6
:101510003846244DA8479DF80E309DF80D209DF8C3
:101520000C102148A847214E3046A8473846A84706
:101530009DF811309DF810209DF80F101C48A84709
:101540003046A8473846A8470023032213211948EC
:10155000A8473046A84714F10D0F0FD140F2D5121D
:1015600015491648A8471648A8473046A84705E039
:101570000020144B984701E06FF00B0420460BB09D
:10158000F0BD00BFCC084020D0084020891E40009C
:10159000F91140004912400069114000DD1D400072
:1015A000948240008D45400078834000FC7F4000DD
:1015B00094834000B0834000BC854000D07F400051
:1015C000CC834000511F400008B5014B984708BD2F
:1015D000390D40002DE9F041A0B080460D4614467B
:1015E0001E46BDF89870012A45D063B940F2032227
:1015F0007A497B487B4CA0477B48A0477B48A04763
:101600006FF00B00E7E0022A35D11846784B984777
:10161000402830D13378A3F13002D2B2362A1BD819
:10162000A3F13A02D2B2062A16D9473BDBB2192BF4
:1016300012D9314606F13F0011F8013FA3F13A02F9
:10164000D2B2062A08D9A3F13002D2B2362A03D880
:10165000473BDBB2192B0CD840F20F225F496048A0
:10166000604CA0476348A0476048A0476FF00B005C
:10167000B1E08842E0D16B1EDBB21F2B0CD940F2E7
:10168000192256495648574CA0475B48A04757482F
:10169000A0476FF00B009EE0FF2F0ED00D2F0CD94E
:1016A00040F222224D494E484E4CA0475348A04795
:1016B0004E48A0476FF00B008DE02A4641460DF1E1
:1016C0005A004F4B984720AB1D44002305F8263C99
:1016D000ADF858709DF89C30003318BF01238DF889
:1016E0007B308DF85540032C38D13378013BDBB289
:1016F0008DF81430032B0ED940F23922374938487F
:10170000384CA0479DF814103E48A0473748A047E2
:101710006FF00B005FE07278531E8DF8153002F009
:10172000EF030B2B0ED04FF410722C492C482D4C8C
:10173000A0479DF815103448A0472C48A0476FF0EB
:101740000B0048E0B11C0DF116002D4B9847737843
:1017500020AA1344002203F86A2C32E0022C19D18B
:101760003046234B9847431E9BB23F2B0CD940F287
:101770004F221A491A481B4CA0472448A0471B482F
:10178000A0476FF00B0026E0421C314605A81C4B19
:10179000984716E0042C05D13E22314605A8184B87
:1017A00098470EE0012C0CD040F25F220B490C4808
:1017B0000C4CA0471648A0470C48A0476FF00B0000
:1017C00009E000230293019300936C2305AA2821CA
:1017D0000120104CA04720B0BDE8F0817482400089
:1017E000D07F40008D454000E8834000FC7F4000F2
:1017F0000D0A4000FC8340000C844000208440001F
:10180000E90940002C844000488440006484400082
:1018100080844000610B400010B582B00024019428
:10182000BDF810400094024CA04702B010BD00BFAC
:10183000D515400000207047F0B583B004464FF442
:10184000A5550A4E0A4F21462846B04754B102A971
:10185000002341F8043D2846B8470028F3D1019BF6
:101860009C42F0D1002003B0F0BD00BF111D40002C
:10187000051D40002DE9F04F83B001203D4B9847F6
:1018800001A901203C4B9847824648B172223B494E
:101890003B483C4CA0473C48A0473C48A04764E03C
:1018A00000244FF00108DFF8F890324D384F0199CD
:1018B00041F002014046C8474046A8476946354BBB
:1018C00018682D4B984718B9009B0BB1314E37E083
:1018D000304E0E2333604046A84769463068264B99
:1018E000984710B9009B002BF0D12A4E1323336088
:1018F0004046A847694630681F4B9847064600286F
:10190000E4D096221D491E481E4CA0472248A047FD
:101910001E48A047B24628E00220A8476946306822
:10192000154B9847009B13F0040F09D1AA221349C5
:101930001348DFF850B0D8471848D8471348D8475D
:10194000009B13F0040F10D10134A7FB04235B08A4
:1019500003EB43039C42DFD0019941F00201404672
:10196000C847009B13F0040FA1D0504603B0BDE858
:10197000F08F00BF4D064000051D4000D885400097
:10198000D07F40008D454000E8854000FC7F40004E
:10199000ABAAAAAA10004020088640002886400072
:1019A000111D400000B583B001A941F20840154B5C
:1019B0009847E0B9019941F48071019141F20840E2
:1019C000114B9847B0B901A94FF4D0500D4B98472F
:1019D00098B9019941F4803101914FF4D0500A4BEC
:1019E0009847002814BF6FF00500002007E06FF053
:1019F000050004E06FF0050001E06FF0050003B0A2
:101A00005DF804FB051D4000111D400010B582B0BB
:101A1000244B1C68002C40D119464FF48050224BB7
:101A2000984718B100221F4B1A6038E001A941F213
:101A3000F4301D4B984718B100221A4B1A602EE063
:101A4000184B1B68194A934206D1019B012B1DD0EC
:101A50000132144B1A6019E0154A934209D1019BD7
:101A6000032B13D0042B0CBF0132124A0D4B1A600A
:101A70000CE0114A934209D10A494FF46C100A4B09
:101A8000984718B10022074B1A6008E0054A13680E
:101A900023F4702343F4A0231360024B1C682046F8
:101AA00002B010BDD4084020051D4000A002100067
:101AB000B0021000B2021000F00010002DE9F04159
:101AC000074641F21405284C284E2846A047002816
:101AD00002DB0120B047F8E72548234B984710F078
:101AE000010F10D1DFF884801F4E224D0120C04726
:101AF0004FF00C10B04704462A4601461E481F4BC3
:101B00009847AC42F2D1022F0AD11D491D481E4C04
:101B1000A0474FF4801141F28C00A04700240FE051
:101B2000032F09D116491748174CA047002141F24D
:101B30008C00A047002403E0042F14BF002480245D
:101B4000124B9847C0F30B00B0F5687F0CBF44F010
:101B5000020020460E4B98470E494FF00C100A4BDE
:101B600098470020BDE8F081F91C40004D06400078
:101B7000BC0702009ED0AD10748640008D45400029
:101B80007DD51C3CAC070200111D40000D1A400021
:101B900039184000612F52EFF0B583B041F28C0349
:101BA0000193184B00930238C0B2012810D8164B8D
:101BB0000193A3F12253A3F51113A3F2E953009368
:101BC00006E03846B0470198A847013C06D113E02B
:101BD0004FF0FF34002002270C4E0D4D009B984221
:101BE000EFD1009A074B9A4209D1002141F28C00B3
:101BF000084B9847002003E06FF0040000E000204D
:101C000003B0F0BD36265302AC0702004D0640007B
:101C1000F91C4000111D4000F0B583B002A900235B
:101C200041F8043D4FF4A050244B984748B140F28E
:101C3000312223492348244CA0472448A047244864
:101C4000A047019921F4806101914FF4A050214BEC
:101C50009847054658B140F23722194919481A4C9D
:101C6000A0471D48A0471A48A047284624E00A2458
:101C7000124E184F01A94FF4A050B047054658B175
:101C800040F23E220E490F480F4CA0471348A04790
:101C90000F48A04728460FE0019911F4806F0AD041
:101CA00021F4806101914FF4A050B847631E13F0F6
:101CB000FF04DFD100E0002003B0F0BD051D4000AF
:101CC000CC854000D07F40008D4540008486400098
:101CD000FC7F4000111D4000A0864000BC864000F3
:101CE00008B5014B984708BDBD07400008B5014B3A
:101CF000984708BDA909400008B5014B984708BDA1
:101D00004925400008B5014B984708BD61254000B2
:101D100008B5014B984708BD792540002DE9F047EB
:101D2000074689461546134BB3F80080A8F108080A
:101D30001FFA88F8424508D80026AAB209EB060126
:101D400038460D4B9847034610E044460026DFF81E
:101D500028A0424609EB06013846D047034628B979
:101D60002D1B26442744A542F3D8E6E71846BDE8D4
:101D7000F08700BF0C0040209D2640002DE9F04771
:101D8000074689461546134BB3F80080A8F10808AA
:101D90001FFA88F8424508D80026AAB209EB0601C6
:101DA00038460D4B9847034610E044460026DFF8BE
:101DB00028A0424609EB06013846D047034628B919
:101DC0002D1B26442744A542F3D8E6E71846BDE874
:101DD000F08700BF0C0040206927400030B583B079
:101DE000044602A9002341F8043D2348234B9847A9
:101DF0000546019A224B9A4205D101A941F24800B9
:101E00001E4B98470546019B1A0C1112E171C2F353
:101E10000311217202F00F0262721A122271C3F3CF
:101E20000312627103F00F03A371164B98472060F1
:101E30002279A37903F00F0343EA022263791B019D
:101E4000DBB21343E179627A02F00F0242EA012128
:101E5000227A1201D2B20A4341F230318A4288BF5B
:101E60006FF00C0541F22F3293428CBF28466FF081
:101E70000C0003B030BD00BFAC070200051D4000E0
:101E8000C3C15DD70D1A400038B530B10478631E68
:101E9000DBB2042B28BF012400E0012400201D4BED
:101EA0009847054650B14FF492721B491B481C4C91
:101EB000A0471C48A0471C48A04729E01B48184DD4
:101EC000A8471B4B984701461A48A8471648A847F9
:101ED000194B98472046194B98470546B0B92046FC
:101EE000174B9847054688B9023CE4B2012C0FD93C
:101EF000144B9847054658B14FF4AE72064907484F
:101F0000074CA0471048A0470748A0470F4B9847E9
:101F1000284638BDE11C4000C4874000D07F400007
:101F20008D45400018874000FC7F400094824000AF
:101F30000D1A40003487400091254000BD1A400032
:101F4000991B4000A519400044874000ED1C40004B
:101F500038B5194B984758B104464FF4BA7217492F
:101F60001748184DA8471848A8471848A84720E020
:101F70000020174B9847044650B140F27B120F499E
:101F80000F48104DA8471348A8471048A84710E02D
:101F9000114B9847044650B140F281120749084856
:101FA000084DA8470D48A8470848A84701E00C4B32
:101FB0009847204638BD00BF191C4000D08740001C
:101FC000D07F40008D45400064874000FC7F40008A
:101FD0005D30400084874000ED1C4000A887400031
:101FE0003D25400000B585B0002301930290ADF877
:101FF0000C1001A90320024B984705B05DF804FBC3
:10200000D9084000F0B583B0054600F13B03DBB2D0
:10201000012B01D9CF2806D101210DF10700224B58
:10202000984700283AD10B2401271F4E39460DF15D
:102030000700B04758B140F227121C491C481D4CFC
:10204000A0471D48A0471D48A047002029E09DF853
:102050000730AB4205D0631E13F0FF04E6D10B241A
:1020600000E00B240126104D31460DF10700A84772
:1020700058B140F235120D490D480E4CA0470E489C
:10208000A0470E48A04700200BE09DF807303BB169
:10209000631E13F0FF04E7D1012002E0002000E0FE
:1020A000012003B0F0BD00BFE51F4000F48D4000EB
:1020B000D07F40008D45400018894000FC7F4000E3
:1020C0002DE9F04F83B08246894693464FF00008D1
:1020D000354DB9F5005F94BF0FFA89F74FF40057FB
:1020E0000A24012631460DF10300A84758B140F2F9
:1020F00057122E492E482F4CA0472F48A0472F4853
:10210000A04700204DE09DF803301B090F2B05D0A0
:10211000013C24B2B4F1FF3FE4D101E0002C0DDC1E
:1021200040F2631221492248224CA0479DF8031037
:102130002348A0472148A047002032E0BFB23946DB
:102140000AEB0800A84758B14FF4B672174918486F
:10215000184CA0471B48A0471848A047002020E083
:10216000BBF1000F12D1184B1B787BB9022101A8DB
:10217000A84758B140F277120C490D480D4CA047C2
:102180001248A0470D48A04700200AE0B8440FFAC3
:1021900088F8C7EB09071FFA87F9B9F1000F98D142
:1021A000012003B0BDE8F08FE51F4000E08740004C
:1021B000D07F40008D4540004C894000FC7F4000AE
:1021C00080894000B0894000D8084020E489400060
:1021D00000B585B0019000230293ADF80C1001A961
:1021E0000320024B984705B05DF804FBD908400076
:1021F00070B584B09DF820408DF80400C1380E28D9
:1022000000F2AE80DFE800F03E3E5F12232C4D4D21
:102210007808ACACACAC35000B0C8DF805300B0A73
:102220008DF806308DF807100521A4E0C1F30723CF
:1022300014B98DF8053003E063F07F038DF80530A5
:102240008DF8061000238DF80730052193E0002358
:102250008DF805308DF806308DF8073005218AE0BD
:1022600000238DF805308DF806308DF807300521F4
:1022700081E0FF238DF805308DF806308DF80730AA
:10228000052178E00A0C8DF805200A0A8DF8062051
:102290008DF807101A0A8DF808208DF809300721EB
:1022A00069E00A0C8DF805200A0A8DF806208DF8E1
:1022B00007101A0C8DF808201A0A8DF809208DF8DD
:1022C0000A30082157E0C1F3072314B98DF805300F
:1022D00003E063F07F038DF805308DF80610130ED0
:1022E0008DF80730130C8DF80830130A8DF809307B
:1022F0008DF80A2008213EE00B0C8DF805300B0A02
:102300008DF806308DF80710130E8DF80830130C79
:102310008DF80930130A8DF80A308DF80B20092149
:1023200029E012F8013B83EA4003E05C9542F8D1D2
:1023300004AB1E44430006F80C3C01E00139C9B26D
:1023400001A8104B984768B14FF484720E490F48AA
:102350000F4CA0470F48A0470F48A04700200FE0B0
:1023600000200DE001200BE04E1E01AB9D197F20E7
:102370001A460A4CD5E70A4B1B78002BDED1F3E74F
:1023800004B070BDD1214000DC8D4000D07F400002
:102390008D4540001C8A4000FC7F4000F0874000D3
:1023A000D808402070B582B00446312835BF0123DB
:1023B0000023C325C925009304230A460146284665
:1023C000164EB04701280CD040F2EB1214491548C4
:1023D000154DA84721461548A8471548A84700208D
:1023E0001AE02846134B9847012814D040F2F11206
:1023F0000B490C480C4DA84721460F48A8470C48EC
:10240000A84700240094234622462146CF20034DAE
:10241000A847204600E0012002B070BDF121400035
:10242000CC8D4000D07F40008D454000488A400060
:10243000FC7F400005204000748A40002DE9F041F7
:1024400084B004468846B0F5807F35BF012600265B
:10245000C425CA25009604230022014628462D4F94
:10246000B84701280CD040F245222B492B482C4D6F
:10247000A84721462B48A8472B48A847002045E0FD
:1024800028462A4B9847012814D040F24B22224973
:102490002248234DA84721462548A8472248A84757
:1024A00000240094234622462146CF20194DA847F8
:1024B00020462BE03246042103A81E4B98470128F2
:1024C00013D040F2532214491448154CA0471A481F
:1024D000A0471548A04700240094234622462146E1
:1024E000CF200C4DA847204610E09DF80D109DF818
:1024F0000E20130443EA01229DF80C3013439DF88B
:102500000F2043EA0263C8F80030012004B0BDE8A0
:10251000F08100BFF1214000008E4000D07F4000DC
:102520008D454000AC8A4000FC7F40000520400003
:10253000D88A4000C12040000C8B40000020014B95
:1025400018707047D808402000B583B001A9034B2C
:102550009847019803B05DF804FB00BF3D2440009C
:1025600008B5044B984701280CBF00206FF0050008
:1025700008BD00BF3D24400008B5044B9847012822
:102580000CBF00206FF0050008BD00BFA523400070
:1025900030B583B0002302A941F8083D324A1370D8
:1025A0004EF62400314B9847F0B901222E4B1A7099
:1025B00040F2C5222E492F482F4CA0472F48A04754
:1025C0002F48A04769464EF62400284B98470446FA
:1025D00050B94FF4327226492648274DA84729485A
:1025E000A8472748A8473CE01F4B1B78CBB9009968
:1025F00021F07C0141F0500100914EF62400224B65
:102600009847044650B940F2D222194919481A4D48
:10261000A8471E48A8471A48A84722E00122124BA3
:102620001A7001A94FF48050104B984760B94FF4CD
:1026300037720F490F48104CA0471548A047104863
:10264000A0476FF005040CE04EF62400114B9847AC
:1026500020F0700141F050014EF624000E4B9847D7
:102660000024204603B030BDD80840203D2440005F
:10267000F0884000D07F40008D4540002C8B40000A
:10268000FC7F40007C8B4000A5234000AC8B4000C9
:10269000E08B40004925400079254000F0B583B02B
:1026A00004460F461546002200922B460146C820DC
:1026B000234EB04701280BD04FF41D722149224808
:1026C000224DA84721462248A8472248A84732E081
:1026D000C820214B9847012812D040F27A2219498C
:1026E00019481A4DA84721461C48A8471948A84729
:1026F000002100910B460A46CF20114CA0471AE05A
:10270000002229463846164B9847012811D04FF42D
:1027100021720C490C480D4CA0471248A0470D48A7
:10272000A047002100910B460A46CF20044CA04749
:1027300001E0002001E06FF0050003B0F0BD00BF34
:10274000F12140000C894000D07F40008D454000C1
:10275000088C4000FC7F400005204000388C400081
:10276000C1204000708C40002DE9F04385B0044644
:1027700088461546002200922B460146C7204C4E43
:10278000B04701280BD040F20F224A494A484B4D2E
:10279000A84721464A48A8474A48A84782E0C72098
:1027A000494B9847012812D040F21522414942482E
:1027B000424DA84721464548A8474248A84700211E
:1027C00000910B460A46CF20394CA0476AE000240E
:1027D000ADF80C403E4FDFF810912E46B5F5005F86
:1027E00028BF4FF400562CB9B5F5005F94BF032302
:1027F000012304E0B5F5005F94BF0323022363F0D7
:102800000F038DF80B3001210DF10B00B84750B1CB
:102810004FF4D4722F492848284CA0472E48A0478F
:102820002848A04728E0314608EB0400B84750B1DB
:1028300040F2B11227492048204CA0472748A04722
:102840002048A04718E099F8003073B9022103A886
:10285000B84750B140F2BB121E491748174CA04769
:102860001F48A0471748A04706E0344424B2AD1BD8
:10287000ADB2002DB1D113E040F226220D490E4831
:102880000E4CA0471748A0470E48A04700240094CC
:10289000234622462146CF20054DA847204603E087
:1028A000002001E06FF0050005B0BDE8F08300BF37
:1028B000F1214000E48D4000D07F40008D45400074
:1028C000988C4000FC7F400005204000C88C4000F0
:1028D000D1214000FC884000008D4000388D400030
:1028E0006C8D4000A48D4000D80840202DE9F84FA1
:1028F000BDF82840002C47D081460E4692469846A7
:1029000003012249CB58002B3ED001EB00139B88DA
:102910009BB2002B38D001EB00139B7ADBB2012B6A
:1029200032D1F48001EB0017DFF878B0BB88E31AEE
:102930001BB2002B03DDBD88ADB2002301E02546AC
:10294000012339682A464046D847A8B93B68336016
:10295000B580F3885B1BF3800D4B1B682BB10C4BD0
:102960001B683246514648469847641BA4B2A844A7
:10297000002CDBD1BDE8F88F0648074DA84721465B
:102980000648A8470648A847BDE8F88F4C0F4020E6
:10299000FC0F4020948240008D454000108E400086
:1029A000FC7F400059104000F0B599B01446412812
:1029B00019D10023042207A92046A44CA0470028CF
:1029C00040F041819DF81D308DF80C30A04B1B6804
:1029D000002B00F038819E4B1B6803AA01219DF952
:1029E0001C0098472FE10D46422819D100230422EC
:1029F00007A92046954CA047002840F024819DF867
:102A00001D308DF80C30924B1B68002B00F01B81A1
:102A10008F4B1B6803AA02219DF91C00984712E105
:102A200043283FD100230C220DEB02012046874CA6
:102A3000A047002840F007819DF91530002B19DBD5
:102A4000844A02EB03120021D17201219172824962
:102A50000A88013292B20A800A8892B21AB90A88A8
:102A6000013292B20A807C4A118889B2794A02EB1B
:102A70000312D1808DF81C300223ADF82030BDF850
:102A80000E30ADF82230049B0993714B1B68002B6C
:102A900000F0D9806E4B1B6807AA04219DF9140031
:102AA0009847D0E0442801D04B2824D100230422A9
:102AB00007A92046654CA047002840F0C4809DF936
:102AC0001C008DF80C009DF91D308DF80D303BB9C0
:102AD000BDF81E30083B9BB25E4A02EB0012138128
:102AE0005B4B1B68002B00F0AE80594B1B6803AAA0
:102AF00005219847A7E04A2813D10023442207A9BB
:102B00002046524CA047002840F09D80534B1B6844
:102B1000002B00F09880514B1B68179907A8984725
:102B200091E0A0F14603DBB2072B4DD8852222FAB3
:102B300003F313F0010F47D0482814BF06270927D5
:102B40000023102203A92046404EB04700287AD126
:102B50009DF91800BDF81A103E4A02EB001200233E
:102B60001373BDF914E0BDF81630BDF80E60ADF872
:102B70002660049E0A96D28892B291421BD1BEF181
:102B8000000F0ADDAE4508DA1FFA8EF200922344E8
:102B90003A4607A9324CA04755E0ADF820E00023A3
:102BA00007932B4B1B68002B4DD0294B1B6807AAA2
:102BB0003946984747E0102D45D901230022114698
:102BC0001046224CA0473EE000F0FD03452B01D00B
:102BD0004C2823D1472814BF0725082500230822A5
:102BE00007A92046194CA04700282CD19DF91C00AC
:102BF000BDF82020BDF81E30ADF80C30154B03EBAE
:102C00000013DB889BB29A421DD1114B1B68D3B1D4
:102C10000F4B1B6803AA2946984714E0522812D18B
:102C20000123142207A92046084CA04758B90D4B90
:102C3000089A1A601B6833B10A4B1B689DF82C2058
:102C400009990798984719B0F0BD00BF5910400086
:102C5000FC0F40204C0F4020DA0840200410402098
:102C6000ED2840000010402008B50A4B1B7813F0F7
:102C7000FF0F0ED1B02200210748084B98470849A2
:102C80000220084B98470122024B1A700022064B83
:102C90001A8008BDD90840204C0F4020FD09400093
:102CA000A929400069114000DA084020024B186051
:102CB000024B1960704700BFFC0F402004104020F9
:102CC00070B586B002284BD101294CD002294DD0D5
:102CD0004FF0FF3458E0254600EB04139B7A13F0C5
:102CE000FF0F36D12A4800EB0410164610220021AF
:102CF000284B9847264B03EB051301229A72264A6C
:102D0000138801339BB2138013889BB21BB91388BD
:102D100001339BB21380204B1A8892B21C4B03EBF9
:102D20000513DA8064B216F0010F2DD006AA02F85E
:102D3000044D174B03EB05152123EB72002302937F
:102D400001930093042350210220144DA8471BE057
:102D50000F480134E4B28C42BDD34FF0FF3413E08E
:102D60004FF0FF3410E00721002401E00B2107247D
:102D70002546074B03EB04139B7A13F0FF0FE7D1B3
:102D8000034800EB0410B0E7204606B070BD00BF5A
:102D90004C0F4020FD094000DA084020610B400044
:102DA00000292ED010B588B0002823DB164B03EB8A
:102DB00000139B7ADBB202B3012B1ED104468DF8BF
:102DC0001C00082205A8114B98470F4800EB04107F
:102DD000C388ADF81E3000230293019300930C23A7
:102DE00005AA412102200A4CA047002818BF6FF015
:102DF000080004E06FF0050001E06FF0050008B086
:102E000010BD6FF0050070474C0F4020E9094000ED
:102E1000610B4000002821DB144B03EB00139B7A6D
:102E2000DBB2012B1DD110B586B08DF814008DF8E2
:102E300015100E4B03EB0010C388ADF816300023BD
:102E4000029301930093042305AA42210220084C17
:102E5000A047002818BF6FF0080005E06FF00500DC
:102E600070476FF00500704706B010BD4C0F402052
:102E7000610B400000280ADB064B03EB0010837A4D
:102E8000DBB2012B14BF6FF00500002070476FF01C
:102E9000050070474C0F402030B589B00C4600311A
:102EA00018BF0121B2F5AF6F88BF0021002936D0CD
:102EB000002834DB1D4B03EB00139B7ADBB2012BA4
:102EC00030D18DF81000ADF81220184B03EB001331
:102ED000DB88ADF81C300728B4BF50254425134BC0
:102EE00003EB0013DB7A13F0010F06D00F4B03EB5B
:102EF00000100589ADB24C2100E0452102950192F8
:102F0000009410230DEB030241F080010220084CD5
:102F1000A04700280CBF00206FF00D0004E06FF008
:102F2000050001E06FF0050009B030BD4C0F4020F6
:102F3000610B4000002918BF002A45D070B586B04B
:102F40000E461546002836DB214A02EB0012927A23
:102F5000D2B2012A32D11E4C01016218665095800E
:102F6000127B12F0FF0F2CD104EB00120121117320
:102F7000D27A0A40002A0CBF46214D211BB94FF0DE
:102F8000FF33049300E004938DF81400104B03EB1F
:102F90000010C388ADF8163000230293019300930C
:102FA000082304AA02200B4CA04700280CBF0020D5
:102FB0006FF00D0006E06FF0050003E06FF0050014
:102FC00000E0002006B070BD6FF00500704700BF44
:102FD0004C0F4020610B400030B587B000282EDB3D
:102FE0001B4B03EB00139B7ADBB2012B2AD1044667
:102FF0008DF81400164B03EB0013DA88ADF8162099
:1030000000229A72DA80DB7A03F001039342029283
:10301000019200924FF0040305AA0CBF49214E21F2
:1030200002200C4DA847051E18BF6FF0080510229E
:103030000021074800EB0410074B984704E06FF0AD
:10304000050501E06FF00505284607B030BD00BF5B
:103050004C0F4020610B4000FD09400070B582B06C
:1030600005462B4B9847C0F30B00B0F5687F4AD359
:1030700001A941F21040274B98470446002843D14C
:10308000254B019A134025491943019141F2104003
:10309000234B9847B5B100212248214DA847AB21C9
:1030A0002148A84701212148A84700212048A847D6
:1030B00081212048A847204E204D3046A8470128AE
:1030C000FBD115E000211748154DA847B921164836
:1030D000A84701211548A84700211548A847812184
:1030E0001448A847144E154D3046A8470128FBD177
:1030F0000949019B194041F48031019141F210408E
:10310000074B984700E00024204602B070BD00BF86
:103110000D1A4000051D4000FF8F88F800101101B6
:10312000111D4000080201000C0201001402010000
:103130001C0201000402010018020100F91C4000F9
:1031400010B51048104B98473E2100200F4B984770
:103150000F4CA0470028FCD00E4B98470E4A0F4B4F
:103160009A620F4CA0470028FCD002200D4B9847D4
:1031700000200D4B98470D4B98470248024B98474B
:1031800010BD00BF00A3E111F53D400081384000B3
:10319000D5384000E5384000013F182000060E40B9
:1031A000F5384000DD37400019384000E53C40006C
:1031B00090B92DE9F0410C469046002A0FDD8F189A
:1031C000084E094D306821462B6898470134A742C4
:1031D000F8D14046BDE8F0814FF0FF307047002045
:1031E000BDE8F0811010402008104020013802286E
:1031F00015D82DE9F0410E4614469AB10D46DFF878
:1032000038800C4FD8F8000015F8011B3B68984730
:1032100000280ADBA81B013CF4D1BDE8F0814FF087
:10322000FF3070470020BDE8F0814FF0FF30BDE86F
:10323000F08100BF0C10402010104020F8B54FF472
:103240000042574B5A60BFF34F8FBFF36F8F554B00
:103250000022C3F850225A6942F400325A61BFF387
:103260004F8FBFF36F8FD3F88060C6F34E3506F0F3
:1032700007070437C6F3C906B6FA86F000F01F0048
:10328000BFF34F8F1C46334605FA07F103FA00F2ED
:103290000A43C4F86022013BB3F1FF3FF6D1013D80
:1032A000B5F1FF3FEFD1BFF34F8F3E4B5A6942F468
:1032B00080325A61BFF34F8FBFF36F8F3A4A3B4959
:1032C0005160A1F580715160BFF34F8FBFF36F8FD5
:1032D000D3F8902222F00102C3F89022D3F894226E
:1032E00022F00102C3F89422BFF34F8FBFF36F8F18
:1032F0000A202F4CA0470B20A0470C20A0471020ED
:10330000A0471120A0472B4B4FF480721A61C3F8DD
:10331000A0201A63A3F580634FF400625A61C3F8DA
:10332000A0205A66C3F890205A651A62C3F8842018
:10333000196F21F400611967596F21F40061596711
:10334000C3F8C020C3F8D420C3F8B0204FF4001253
:103350001A66C3F890205A655A62C3F88020196F24
:1033600021F400111967596F21F4001159675A604F
:10337000114AD2F8143143F01003C2F814310F4B44
:1033800010221A66C3F890205A655A62C3F880204A
:10339000196F11431967596F114359675A60F8BD86
:1033A00050180E4000ED00E0000C0E400C08005AD2
:1033B0000539400000120E400080084000100E4009
:1033C0000AB1416670470166704700BF4264B1F1BF
:1033D000C05F2FD007D8B1F1006F14D0B1F1805F7A
:1033E0001ED039B97047B1F1205F37D004D8B1F1A0
:1033F000005F29D042607047B1F1405F2ED0B1F13B
:10340000605F2BD0F6E710B4046F016FD343214007
:1034100019400167446F416F21400B4043671AE038
:10342000036F13430367416F436F0B4023EA0203AB
:103430004367DFE7016F036F0B4023EA0203036773
:10344000436F13434367D5E7036F13430367436F2A
:1034500013434367CEE742605DF8044B704700BFFB
:10346000416412F0010F01D0416600E0016612F0E4
:103470000A0F01D0016200E0416212F0020F02D097
:10348000C0F8801004E012F0080F01D0C0F88410DA
:1034900041610160704700BF10B44164019C0CB1F0
:1034A000416600E001660BB1016500E041650AB1CB
:1034B000016300E04163016101605DF8044B704706
:1034C00012F0100F12D0C0F8B01012F0200F02D07E
:1034D000C0F8D41001E0C0F8D01012F0400F02D0B4
:1034E000C0F8C0107047C0F8C4107047C0F8B410DE
:1034F000704700BF0164704741647047C06C7047FB
:10350000806C704770B582B00D46474C04EB501488
:10351000640201F0F043B3F1005F4DD009D8B3F17C
:10352000805F23D0B3F1C05F33D0B3F1006F77D1A8
:1035300009E0B3F1405F5DD0B3F1605F5AD0B3F101
:10354000205F4CD06CE000F01F0001268640324620
:103550004FF000612046354B984715F0010F02D01F
:10356000666601205DE0266601205AE000F01F003B
:103570000126864032464FF0805120462B4B98471B
:1035800015F0010F02D0666601204AE02666012090
:1035900047E000F01F000126864032464FF0C05140
:1035A0002046224B984715F0010F02D06666012095
:1035B00037E02666012034E000F01F000126864037
:1035C00032464FF000512046184B984715F0010F36
:1035D00002D06666012024E02666012021E000F08A
:1035E0001F0101262A4606FA01F12046104B984792
:1035F000304616E005F0605200F01F01012605EA92
:1036000006030093C5F38003B2F1605F14BF00228C
:10361000012206FA01F12046064CA047304600E0A0
:10362000002002B070BD00BF07072000CD3340006E
:1036300061344000993440002DE9F0410446884649
:103640000E4B9847054620460D4B9847054013D032
:103650000C4C04F160062368434508D16168294297
:1036600005D0E36840469847636825EA0305B442FD
:1036700002D01034002DEED1BDE8F081FD344000C1
:1036800001354000E0084020F8B5174C2668062EAA
:1036900028D84FF0000C6446144FA64625017D59EA
:1036A0008D4204D107EB04156D68954204D00134B6
:1036B000E4B2A446A642F0D20C4D4FEA0E1E05EB32
:1036C0000E0445F80E106260A3600699E1600136B1
:1036D000664501D104490E6011461A46044B9847CD
:1036E0000020F8BD0120F8BDDC084020E0084020A3
:1036F000C134400008B50A210148024B984708BD73
:10370000000E0E403936400008B50B210148024B2F
:10371000984708BD00100E403936400008B50C210E
:103720000148024B984708BD00120E403936400050
:1037300008B510210148024B984708BD00140E40FF
:103740003936400008B511210148024B984708BDA1
:1037500000160E4039364000F8B506460D461446B0
:10376000174B984707464FF0FF313046154B9847A7
:103770003046154B98475FFA85FE0EF01F03012275
:1037800002FA03F36809114901EB8002C2F88030A4
:10379000C2F88031002D07DA0EF00F0E6401E4B29A
:1037A0000B4A02F80E4003E06401E4B2094A5455A2
:1037B00041F8203039463046074B9847F8BD00BFE6
:1037C00001354000F9344000FD34400000E100E0E4
:1037D00014ED00E000E400E0F5344000032807D0D9
:1037E000042808D002280CBF4FF48072002204E0A5
:1037F0004FF4407201E04FF4007206490B6B23F462
:10380000407313430B630A46936E13F0080FFBD00B
:10381000704700BF00060E40184A136B23F0700378
:1038200018431063936E13F0080F03D009E0013BB7
:1038300003D11EE04FF4805310498A6E12F0080F36
:10384000F5D00E4A136B23F0030343F00203136316
:10385000906E10F0080004D000207047013B03D1A7
:1038600009E04FF4805305498A6E12F0080FF5D035
:103870007047012070470120704700BF00060E40CE
:1038800038B10E490B6A0E4A1A400E4B13430B62B5
:1038900070470A48036A090289B20B4A1A400B4B67
:1038A0001343194301620246936E13F0010FFBD0DC
:1038B000024A116A064B0B431362704700060E4022
:1038C000FCFFC8FE02003701FCFFC8FF0100370003
:1038D00000003701024B986E00F48030704700BF43
:1038E00000060E404FF00052014B9A62704700BF35
:1038F00000060E40024B986E00F00200704700BFB9
:1039000000060E403F281ED81F280CD8114B9A697C
:1039100001238340934318D0012303FA00F00D4B99
:1039200018610020704720380A4BD3F80821012382
:10393000834093430BD0012303FA00F0054BC3F8F7
:1039400000010020704701207047002070470020D0
:10395000704700BF00060E4008B5074B984203D1E0
:103960001520064B984708BD054B984202D12A20E6
:10397000024B984708BD00BF008000400539400059
:1039800000800540436823F47023436043680904C2
:1039900001F470210B434360704700BF10B443F63D
:1039A000992301E0013B0ED0046914F0010FF9D016
:1039B0008368406810F0020F02D0C3F30340107018
:1039C0000B80002000E001205DF8044B704700BF31
:1039D00030B443F6992401E0013C11D0056915F09B
:1039E000020FF9D0446814F0020F06D0120402F45A
:1039F000702211430BB141F08071C160002000E0E2
:103A0000012030BC704700BF32B100EB8100036B76
:103A100043F001030363704700EB8100036B23F065
:103A200001030363704700BF32B100EB8100036BF9
:103A300043F002030363704700EB8100036B23F044
:103A400002030363704700BF00EB81010B6B23F09F
:103A5000F0030B630B6B1A430A637047431E194450
:103A6000B1FBF0F0431EFE2B94BF00B24FF0FF30CD
:103A7000704700BF6AB110B4144600EB81010B6BB4
:103A800023F47F430B630A6B42EA04220A6300209B
:103A900002E04FF0FF3070475DF8044B704700BF05
:103AA00010B400EB8101086B80B208630C6B44EA30
:103AB000036343EA02420A635DF8044B704700BFA8
:103AC000436913F0020F02D0C1610020704701204A
:103AD000704700BF436913F0010F03D083690B7077
:103AE000002070470120704710B40C0194420FD998
:103AF0001AE0416841F400214160120402F4E0221E
:103B00001A43026200201CE001201AE0012018E0A4
:103B1000630803EBC202B2FBF4F2D3085C1E4FF65B
:103B2000FE718C42E9D9EFE7C9004B0803EBC202F2
:103B3000B2FBF1F2D3085C1E4FF6FE718C42E5D861
:103B4000D7E75DF8044B7047084BC0F8E43000231A
:103B500043604362836288230360242303604FF43D
:103B6000807303604FF40023036070470041535596
:103B700070B505460C4616460F4B984700220F4B72
:103B80001A609CB13246216828460D4B9847024680
:103B900070B96168A368194323691943E3680B434B
:103BA00006490B6069680B436B6002E0012200E08C
:103BB0000122104670BD00BF493B40005009402023
:103BC000E93A400040230360704700BF10230360C0
:103BD000704700BF436913F0020F04D0C1F308011E
:103BE000C161002070470120704700BF436913F096
:103BF000010F05D08369C3F308030B6000207047F1
:103C000001207047FEE700BF00B583B0274B284A6C
:103C10009A4203D0274B254A9A4204D3264B274A7F
:103C20009A420FD31AE02149254B5B1A23F0030374
:103C300004331F4A134452F8040B41F8040B9A4210
:103C4000F9D1EBE71F4B204AD21A22F003021A44A3
:103C5000043B002143F8041B9342FBD11B4A1C4B3D
:103C600023F07F039360EFF31083B3FA83F35B09D0
:103C7000019372B6BFF35F8F0022164B1A70019941
:103C8000154A136843F470031360BFF34F8FBFF3FB
:103C90006F8F29B101220F4B1A70BFF35F8F62B68D
:103CA0000E4B98470E4B9847FEE700BF00004020A0
:103CB00030924000840840201810402084084020A2
:103CC00083084020880840201B10402000ED00E0C1
:103CD000000040001400402088ED00E03D45400019
:103CE000594340003C4B1B6B03F00303012B0FD0E7
:103CF00013B1022B29D057E0384B5B6913F0800FCA
:103D000014BF4FF400424FF4FA42354B1A604BE0B7
:103D1000314B1B6A13F0807F03D0324A304B1A605C
:103D200042E0314A2E4B1A602B4B1B6A03F07003A2
:103D3000102B02D0202B04D036E02C4A284B1A60DE
:103D400032E0284A264B1A602EE0234B1B6A13F000
:103D5000807F03D0234A224B1A6012E0224A204B74
:103D60001A601D4B1B6A03F07003102B02D0202B2E
:103D700004D006E01D4A1A4B1A6002E0194A184B9B
:103D80001A60154B1B6B03F00303022B0CD1124A74
:103D9000936A926A1248C3F30A41036801FB033332
:103DA000D2B2B3FBF2F303600B4B1B6B03F0700357
:103DB000702B07D10A4A13680D49A1FB03135B0856
:103DC00013607047044B1B6B0549C3F302120B6869
:103DD000D3400B60704700BF00060E4010180E4025
:103DE00018004020001BB70000093D0000127A00B7
:103DF000ABAAAAAA124B984204D84FF08062114B8A
:103E00001A607047104B984203D8104A0D4B1A6045
:103E100070470F4B984203D80E4A0A4B1A607047FE
:103E20000D4B984203D80D4A064B1A6070470C4B55
:103E3000984294BF4FF004220A4A024B1A6070471E
:103E4000FF2C3101000C0E40FF59620200010004FA
:103E5000FF86930300020004FFB3C40400030004C0
:103E6000FFE0F50500050004094B1B6813B9094A7A
:103E7000074B1A60064B1B681A180749914204DB6E
:103E80001046034A1060184670474FF0FF307047E5
:103E90005409402018324020FCFF45204FF0FF30ED
:103EA000704700BF4FF400534B600020704700BFC5
:103EB000012070470020704738B5144601390629A3
:103EC00000F2D380DFE811F007002000D1003A00B3
:103ED000D10063005B0062B192F900304BB96348D6
:103EE000634B98470021634B93F90000624B98475E
:103EF00038BD62485E4B98475E4C94F90000604BB9
:103F00009847FF23237038BD6AB192F9003053B946
:103F10005C48574B984700221146564B93F90000D6
:103F2000594B984738BD5948514B9847514C94F9D3
:103F30000000534B9847FF23237038BDA2B154486B
:103F40004B4B9847002211464A4B93F900004E4BC9
:103F5000984794F900004F4B1870002340F2B45278
:103F60004D494E4CA04738BD4D48414B9847414CB8
:103F700094F90000424B9847FF23237038BD49480D
:103F80003B4CA0474848A0474848A04738BD002AB6
:103F900061D0B2F90430002B5DDD454B1968013169
:103FA00019604448324DA8473B4C21464248A84737
:103FB00021464248A847002340F2B45221463548E2
:103FC00090F900003E4DA84720463E4B98470446D6
:103FD0000378022B18D002D8012B05D025E0102B36
:103FE00017D0FF2B1DD020E03748384B98470023CF
:103FF00005223749274890F90000314DA8474FF472
:104000008072344B5A6310E04FF48072314B1A6364
:104010000BE045682846304B984728462F4B984779
:1040200003E041682E48124B984720462B4B984797
:10403000194A531E02F2B352002103F8011F9342A2
:10404000FBD1002340F2B4521349124890F900000A
:10405000124CA04738BD2348054B9847054C94F9AE
:104060000000074B9847FF23237038BD6C8E40003B
:104070008D4540001D004020152E4000888E4000D8
:10408000D92F4000A48E4000752E4000C48E400001
:10409000E08E40001C0040205C094020352F40008D
:1040A000008F40001C8F4000388F4000548F40002C
:1040B00058094020648F4000407F40008C8F4000B2
:1040C000992E400061044000988F4000514C400000
:1040D0005C7F400000120E40AD054000C545400029
:1040E000A08F4000A48F400010B582B02C2802D0D1
:1040F000322819D024E00B78012B05D11148124B3E
:104100009847124B98471BE0D3B911480E4B98477C
:104110000022104B1A70FF2300930F4B022205213F
:104120000E480F4CA0470BE001220A4B1A708B7807
:104130004A780878C978009101460A48024CA0479D
:1041400002B010BDC08F40008D45400035184000C2
:10415000F88F4000100F4020349040004090400005
:104160001918400048904000F0B583B005460C4651
:1041700000230193294B984207D11F46284E214620
:104180003846B0470028FAD115E0264B984207D1AF
:104190001F46234E21463846B0470028FAD115E085
:1041A000214B984207D11F461D4E21463846B04745
:1041B0000028FAD117E01D4B9D4207D11F46184E2B
:1041C00021463846B0470028FAD119E0184B9D42E5
:1041D00009D11E46174D01A93046A8470028FAD13B
:1041E000019B237018E0144B9D4209D11E46114DCE
:1041F00001A93046A8470028FAD1019B23700BE0A3
:104200000E4B9D4208D11E460A4D01A93046A847D3
:104210000028FAD1019B237003B0F0BD00080E40C6
:10422000D53A4000000A0E40001A0E40001C0E4015
:1042300000400240ED3B40000080024000C00240D0
:1042400070B50C462A4B984208D11E46294D21468E
:104250003046A8470028FAD1012070BD264B98426D
:1042600008D11E46234D21463046A8470028FAD1E2
:10427000012070BD214B984208D11E461D4D21469C
:104280003046A8470028FAD1012070BD1C4B984247
:1042900008D11E46174D21463046A8470028FAD1BE
:1042A000012070BD174B984208D11E46164D21467D
:1042B0003046A8470028FAD1012070BD134B984220
:1042C00008D11E46104D21463046A8470028FAD195
:1042D000012070BD0E4B984208D11E460A4D214662
:1042E0003046A8470028FAD1012070BD002070BDDB
:1042F00000080E40C13A4000000A0E40001A0E406D
:10430000001C0E4000400240D53B400000800240AF
:1043100000C0024010B50B480B4B9847044610F004
:10432000040F03D004210748084B984714F0020FEC
:1043300006D002210348054B98470548054B98478E
:1043400010BD00BF60180E40590440005D044000DD
:1043500080904000514C4000F0B593B04E4B9847D0
:104360004E4B98474FF480524D4B1A6103F5406312
:104370004FF480721A611A600E204A4EB0474A4DBF
:104380004A4B1D604A4A4B4B1A604B4A4B4B1A60D2
:104390004FF4E1330293C02303934FF4006304937B
:1043A0000024059406940E20B047454A02A92846E9
:1043B000444B98472846444B98472846434B9847D8
:1043C000434E336821469868424DA84733682146DA
:1043D0005868A8474048414DA8474148414B984735
:1043E000414B9847414B98474148A8470223ADF8B5
:1043F000203040F61A23ADF8223009940D940E9423
:104400000F94109411943B4B0C930CA83A4B984783
:1044100020B101463948334B9847FEE738482F4CC6
:10442000A047384B984700213748384B9847FF231F
:104430000093374B022205213648374DA8473748AD
:10444000A0470024364F374E374D00E001240020AE
:10445000B8473378012B16D195F90030002BF5DAE7
:10446000002201210220314B98472870002804DAED
:104470002F481C4B98470124E9E7102208A92D4B2F
:1044800098470124E3E7002CE1D02B48154B9847CF
:10449000002013B0F0BD00BF413140003D3240006C
:1044A00000060E40053940000080024010104020F8
:1044B000414240000C10402069414000081040205B
:1044C00080D1F008713B4000C53B4000CD3B40002F
:1044D00048044020854C400090904000514C4000E2
:1044E000A49040008D454000A50640003D054000D9
:1044F00004914000E9404000CD1440001491400078
:104500003C914000692C4000B93E4000AD2C400079
:104510003490400040904000191840004C914000F9
:10452000C9154000100F40201D004020C12C400044
:1045300064914000A12D40009891400070B50F4E4D
:104540000F4D761BB61018BF002405D0013455F866
:10455000043B9847A642F9D10A4E0B4D761B04F056
:1045600051FEB61018BF002406D0013455F8043BA4
:104570009847A642F9D170BD70BD00BF10924000AF
:104580001092400018924000109240000FB400B505
:10459000074983B004AB086853F8042B8168019382
:1045A00001F0C4F803B05DF804EB04B0704700BF3D
:1045B00048044020024B0146186800F00BB800BFC9
:1045C00048044020024B0146186802F059BA00BF67
:1045D000480440202DE9F04F01F10B05162D83B062
:1045E000064640F29F8035F0070500F1BF80A942E2
:1045F00000F2BC8000F0F4FAB5F5FC7FC0F09C82BC
:104600006B0A00F0BA80042B00F28381A80900F144
:10461000390E4FEA4E033830C44F07EB8303A3F142
:1046200008015C68A14207D1ACE0002A80F2AC80AE
:10463000E468A14200F0A680636823F003035A1BDC
:104640000F2AF2DDB9493C6901F1080E744500F00A
:10465000B381636823F003035A1B0F2A00F3998187
:10466000002AC1F814E0C1F810E080F29E80B3F592
:10467000007F80F06781DB0803F1010C01229B10B1
:1046800002FA03F34A6851F83C80C4F8088001EB51
:10469000CC091A43A9F10803E3604A6041F83C40A1
:1046A000C8F80C40831001249C40944200F28A8098
:1046B000144206D120F003006400144200F104000B
:1046C000FAD007EBC009CC468046DCF80C108C45CC
:1046D00007D173E1002A80F28181C9688C4500F01E
:1046E0006D814B6823F003035A1B0F2AF2DD0C4641
:1046F000D1F80CC054F8088F4B1945F001054D60F6
:1047000042F00101C8F80CC03046CCF808807B614B
:104710003B61C3F80CE0C3F808E059609A5000F020
:1047200061FA1FE0102921D800F05AFA102506235B
:1047300002207E4F07EB8303A3F108025C689442DA
:1047400000F045816368E168A56823F00303234412
:1047500030465A68E96042F001028D605A6000F00C
:1047600041FA0834204603B0BDE8F08F00240C2342
:104770002046336003B0BDE8F08F80234FF0400E39
:104780003F2049E770465DE72344E1685A68A56821
:1047900042F00102E96030468D605A6000F022FA72
:1047A0000834204603B0BDE8F08F234430465A68F1
:1047B00042F001025A6000F015FA0834204603B0B6
:1047C000BDE8F08FBC68636823F00308A84504D3F4
:1047D000C5EB08030F2B00F38C80554BDFF860917D
:1047E0001A68D9F8003001332A4404EB080A00F0B3
:1047F000608102F580520F3222F47F6222F00F02B4
:1048000011463046019200F02BFAB0F1FF3F83468B
:10481000019A00F05881824500F2FC80454B1968EE
:10482000DA451144196000F05381D9F80000DFF82F
:1048300010E101301BBFCAEB0B0A5144CEF800B0A7
:1048400019601BF0070100F01781C1F10800C1F5E4
:104850008051834408315A44C2F30B02C2EB010970
:1048600049463046019300F0FBF9431C019B00F0E0
:104870003F81CBEB00024A4442F001021968C7F8BD
:1048800008B04944BC42CBF804201960DFF8A4907A
:1048900016D0B8F10F0F40F2FD806268A8F10C034A
:1048A00023F00703E01802F001024FF0050E1A434F
:1048B0000F2B6260C0F804E0C0F808E000F21C8131
:1048C0001D4BBC681A68914288BF19601B4B1A685F
:1048D0009142626888BF196022F003029542A2EB00
:1048E000050301D80F2B04DC304600F07BF90024CF
:1048F00038E7621943F0010345F001056560304671
:10490000BA60536000F06EF90834204603B0BDE889
:10491000F08F142B71D9542B00F2A480280B00F1D6
:104920006F0E4FEA4E036E3076E600BF4C04402017
:104930001C0F4020200F4020180F4020140F402053
:10494000580840205A0A042A5ED9142A00F2B3807B
:1049500002F15C0149005B3207EB810C57F8211032
:10496000DFF8DC81ACF1080C8C4500F088804A68E7
:1049700022F00302934202D289688C45F7D1D1F824
:104980000CC07A68C4F80CC0A160CCF80840CC60B8
:1049900088E6631942F0010745F00105656030467D
:1049A0004B610B61C3F80CE0C3F808E05F609A50FC
:1049B000083400F017F9D5E64A6873E608F10108F3
:1049C00018F0030F0CF1080C7FF47FAE30E0DC68C8
:1049D000A34208BF02303FF435AEB3E60B440C46A9
:1049E0005A68C96854F8085F42F001025A603046BC
:1049F000E9608D6000F0F6F8B4E603F15C0E03F1B7
:104A00005B004FEA4E0307E69A0902F139014900BB
:104A10003832A1E7BC424A4B3FF400AF9C68626861
:104A200022F003025AE759F80839994540F082808C
:104A300010F0030F00F1FF30F5D17B6823EA040387
:104A40007B6064009C423FF6BDAE002C3FF4BAAEE2
:104A50001C4240467FF435AE64001C4200F1040065
:104A6000FAD02EE6B3F5AA7F18D8E80B00F1780E3D
:104A70004FEA4E037730CFE54FF48051EBE601214A
:104A8000D8F80430921001FA02F21A43C8F8042050
:104A9000614677E70123CBF8043025E740F2545212
:104AA000934220D8A80C00F17D0E4FEA4E037C30D3
:104AB000B2E51032A4E6542A26D81A0B02F16F018F
:104AC00049006E3248E7BC68626822F0030205E7DD
:104AD000CAF30B0000287FF4A8AE4244BB6842F042
:104AE00001025A60ECE6FE234FF07F0E7E2093E534
:104AF00001224FF00009C1E604F10801304601F03F
:104B0000BFFFD9F80010DBE6B2F5AA7F05D8DA0BB3
:104B100002F17801490077321EE740F254518A428F
:104B200005D89A0C02F17D0149007C3214E7FE2180
:104B30007E2211E77B6884E7E808431C5B00F8E508
:104B40004C04402070B4840746D0541E002A41D043
:104B5000CDB2034602E0621EE4B3144603F8015BE3
:104B60009A07F8D1032C2ED9CDB245EA05250F2C92
:104B700045EA054519D903F110022646103E0F2ECD
:104B800042F8105C42F80C5C42F8085C42F8045CA5
:104B900002F11002F2D8A4F1100222F00F0204F088
:104BA0000F041032032C13440DD91E462246043A3A
:104BB000032A46F8045BFAD8221F22F003020432CB
:104BC000134404F003042CB1C9B21C4403F8011BC4
:104BD000A342FBD170BC704714460346C2E700BF36
:104BE000704700BF704700BFF0B5054689B0084662
:104BF0000C4600F085FAAB6B144F04940126441C5C
:104C000004A9022203940590AC68069707960191C7
:104C10000292B3B1B4F90C309A0406D4626E43F434
:104C2000005322F40052A38162662146284601AA5D
:104C300002F00EF8002814BF4FF0FF300A2009B030
:104C4000F0BD284601F052FEE4E700BF9491400019
:104C5000024B01461868FFF7C7BF00BF4804402059
:104C600038B5074C0023054608462360FFF7FCF8DB
:104C7000431C00D038BD2368002BFBD02B6038BD0F
:104C80001410402000290CBF022200224FF4806340
:104C900000F000B82DE9F043514C256883B004467C
:104CA0000F4690461E4615B1AB6B002B79D0B8F17C
:104CB000020F04D0B8F1010F7FD8002E7DDB214612
:104CC000284601F07FFD216B41B104F14003994278
:104CD00002D0284601F0D4FE00232363B4F90C303F
:104CE0000022A26162601A0654D423F44A6323F0BE
:104CF0000303B8F1020FA38139D001AB6A46214604
:104D0000284602F05BF9A3891843A08126B327B394
:104D1000AB6B002B4DD0009BB4F90C0027609E427A
:104D20001CBF40F40060A081B8F1010F08BF40F043
:104D3000010083B208BFA08103F0080080B22761A0
:104D4000666118B313F001002FD000207642A661EF
:104D5000A06003B0BDE8F083009E3046FFF72AFC58
:104D6000074668B3A38943F08003A381D0E70020FE
:104D700004F1430243F0020300250121A381A56051
:104D800022602261616103B0BDE8F083A06003B0DE
:104D9000BDE8F0832169284601F072FEB4F90C30B9
:104DA000A3E7284601F0A2FD81E7A66003B0BDE8B5
:104DB000F083284601F09AFDADE74FF0FF30E2E7BF
:104DC000DDF80090B14506D04846FFF7F3FB0746F3
:104DD00008B14E46C6E7B4F90C304FF0FF30C7E7D4
:104DE0004804402000000000000000000000000017
:104DF00000000000000000000000000000000000B3
:104E0000A2EB0300704700BF02780B78012A28BF8D
:104E10009A42F5D16DE9044540EA0104CDE9026703
:104E20006FF0000C4FEA447212B380EA010414F0F0
:104E3000070F6AD100F0070420F0070004F0030513
:104E400021F007014FEAC505F0E8042314F0040F30
:104E5000F1E804670CFA05F462EA040266EA040663
:104E60000AD063EA0403624667EA0407664603E081
:104E7000F0E80423F1E8046782FA4CF582EA0604BC
:104E8000A4FA8CF46CBB83FA4CF583EA0705A5FA07
:104E90008CF595B950E9022351E9026782FA4CF585
:104EA00082EA0604A4FA8CF483FA4CF583EA070537
:104EB000A5FA8CF52543DBD09CB92DBAB5FA85F45B
:104EC00024F0070427FA04F1DDE9026723FA04F36A
:104ED00003F0FF0001F0FF01FDE80445A0EB010035
:104EE000704724BAB4FA84F424F0070426FA04F1D3
:104EF000DDE9026722FA04F202F0FF0001F0FF018F
:104F0000FDE80445A0EB0100704714F0030F3CD10D
:104F100010F0030428D150F8082B51F8083B82FA0E
:104F20004CF582EA0305A5FA8CF55DB950F8042C1E
:104F300051F8043C82FA4CF582EA0305A5FA8CF597
:104F4000002DE8D02DBAB5FA85F424F0070423FA31
:104F500004F122FA04F202F0FF0001F0FF01FDE883
:104F60000445A0EB010070474FEAC40420F00300A1
:104F700050F8082B21F0030151F8083B0CFA04F417
:104F800062EA040263EA0403C9E710F003041AD0DA
:104F9000A1EB040120F00300E40750F8042B06D035
:104FA0000FD28B785FFAA2F4E41A06D12BB1CB783A
:104FB0005FFAB2F4E41A00D11BB920465DF8104B39
:104FC000704701F1040150F8042BCC0721F00301D4
:104FD00051F8043B48D824D222F07F4482FA4CF5A1
:104FE00094EA1325A5FA8CF50AD165B951F8043B6A
:104FF00084EA0204B4EB036F0ED150F8042BEBE704
:105000004FEA132355E035F07F454DD10878FDE890
:105010000445C0F1000070474FEA126203F0FF033D
:1050200047E002EA1C4482FA4CF594EA1345A5FADB
:105030008CF50AD165B951F8043B84EA0204B4EB5B
:10504000034F0CD150F8042BEBE74FEA134330E049
:1050500015EA1C4528D10B884FEA124229E04FEA95
:10506000124203EA1C4324E002F0FF0482FA4CF5EA
:1050700094EA1365A5FA8CF50AD165B951F8043B99
:1050800084EA0204B4EB032F09D150F8042BEBE7B8
:105090004FEA13630DE015F0FF0F05D10B684FEADF
:1050A000122223F07F4304E04FF00000FDE80445A6
:1050B000704712BA1BBA82FA4CF482EA0304A4FACB
:1050C0008CF5B5FA85F402FA04F203FA04F34FEA18
:1050D0001260FDE80445A0EB13607047000000007B
:1050E00000000000000000000000000000000000C0
:1050F00000000000000000000000000000000000B0
:1051000090F800F06DE9024520F007016FF0000C07
:1051100010F0070491F820F040F049804FF00004AF
:105120006FF00700D1E9002391F840F000F108008A
:1051300082FA4CF2A4FA8CF283FA4CF3A2FA8CF3C2
:105140004BBBD1E9022382FA4CF200F10800A4FA29
:105150008CF283FA4CF3A2FA8CF3E3B9D1E904237D
:1051600082FA4CF200F10800A4FA8CF283FA4CF3B4
:10517000A2FA8CF37BB9D1E9062301F1200182FA6E
:105180004CF200F10800A4FA8CF283FA4CF3A2FA74
:105190008CF3002BC6D0002A04BF04301A4612BA82
:1051A000B2FA82F2FDE8024500EBD2007047D1E985
:1051B000002304F00305C4F100004FEAC50514F014
:1051C000040F91F840F00CFA05F562EA05021CBFE5
:1051D00063EA050362464FF00004A9E72DE9F041B8
:1051E0004FF0010E744600254FF0FF362B198B420D
:1051F00000EB06070DD23F5D10F803C0BC452DD271
:105200001D460124C6EB030E2B198B4200EB06074B
:10521000F1D34FF00108C2F800E0444600254FF0FA
:10522000FF372B19994200EB070E0ED91EF804E048
:1052300010F803C0F44518D91D460124C7EB030834
:105240002B19994200EB070EF0D80137701C8742EA
:1052500024BFC2F800803846BDE8F0810CD04FF082
:10526000010E2E4674467544C0E70CD04FF001087D
:105270002F4644464544D4E7744509BFA646013449
:105280001D460124B2E7444509BFA04601341D462E
:105290000124C6E72DE9F04FADF2144D1646054640
:1052A0008B461046194603AA1C46FFF797FF03AB2F
:1052B00081460DF20C4243F8044F9342FBD14CB1AE
:1052C000631E324604A812F8011B40F8213013F186
:1052D000FF33F8D203994A463144304601F038FF93
:1052E000002871D109F1FF330093F318824601932E
:1052F00023468046544658469A4608EB0A073A1A0F
:105300000021284401F0D4FE002858D1002F56D0A7
:10531000EB1904AA13F8013C52F823304BB124B125
:10532000039A934201D2C2EB0A0398440024384600
:10533000E3E74C4523460AF1FF3E38BF4B46734531
:1053400013D208EB030216F803C0A85C84452A4474
:1053500006EB030106D02EE011F801CF12F8010F81
:10536000844528D101337345F6D34C45009980F02C
:105370008B80009B019808EB03020378A85C8342B2
:105380002A4440F08180019B06EB040B06E013F8F1
:1053900001ED12F8010D864504D161469B4501F1EE
:1053A000FF3CF4D101348C4270D8039C3846A044B1
:1053B000C4EB0A04A1E7C9F101029044B5E700205B
:1053C0000DF2144DBDE8F08FC9EB04034B4538BF17
:1053D0004B46013309F1FF38039306EB08035846A7
:1053E0004FF0000ACB4699460AEB04073A1A00210F
:1053F000284401F05DFE0028E1D1002FDFD0EB1939
:1054000004AA13F8013C52F82330A3BB611E8B455C
:1054100015D20AEB0B0216F80B3015F802E09E4588
:105420002A4406EB0B005B4606D027E010F801CFBC
:1054300012F801EFF44521D101338B42F6D3B8F1D4
:10544000FF3F11D00AEB080299F80010AB5C9942BB
:105450002A440FD14B4605E013F8010D12F8011D47
:10546000884207D1B342F7D105EB0A000DF2144D83
:10547000BDE8F08F039B9A443846B5E7CBF10102B3
:1054800092449A443846AFE749468BE705EB08005B
:1054900096E700BF0378002B00F004812DE9F04F60
:1054A00091F8008085B04446B8F1000F16D08646CA
:1054B00001F1010C012703E012F8014B6CB1944695
:1054C0009C4214BF002707F001071EF8013F624607
:1054D000002BF1D19CF800300BBB17B105B0BDE833
:1054E000F08F0E46054641460130C6EB0C0402F033
:1054F00093F9074698B1012CF0D02819874294BF40
:10550000C7EB000B4FF0010B1F2C0CD92346324682
:1055100059463846FFF7BEFE05B0BDE8F08F0020C3
:1055200005B0BDE8F08F03AA21463046FFF756FECE
:105530000399804602463144304601F009FE0028B6
:1055400058D108F1FF330193F318814605460093C3
:105550005846B2466619321A0021384401F0A8FDB7
:105560000028DCD1002EDAD0C845434638BF4B4670
:105570009C4212D95A191AF80310B85C88423A446E
:105580000AEB030E06D02DE01EF8010F12F8011FE2
:10559000884227D101339C42F6D8019BC845194661
:1055A00040F28380EA1800980378B85C83423A445A
:1055B0007BD1009B0AEB090B06E013F801CD12F832
:1055C00001EDF44504D101465B4501F1FF30F4D112
:1055D00009F10109894557D8039B30461D44C3EBA7
:1055E0000409B7E7C8F1010215441D444FF0000952
:1055F0003046AFE7C8EB0403434538BF43460133A9
:1056000008F1FF39039306EB090358460025BB4612
:105610009A4667193A1A0021584401F049FD0028BA
:105620007FF47DAF002F3FF47AAF444515D908EBE6
:10563000050216F808301BF8020098425A4406EB9F
:105640000801434606D023E011F801EF12F8010FDC
:1056500086451DD101339C42F6D8B9F1FF3F12D0E7
:1056600005EB09029AF800101BF8023099425A44DF
:1056700014D1534605E013F8010D12F8011D8842BC
:105680000CD1B342F7D15F46781905B0BDE8F08F71
:10569000C8F1010215441D443846BAE7039B384659
:1056A0001D44B6E70B7813B97047414690E70020D8
:1056B000704700BF4B6E2DE9F0479C0492462CD5F5
:1056C000936812683BB30F46804602F1080919E956
:1056D0006000B60817D0043D002401E0A64210D0B7
:1056E0003A4655F8041F404601F06AF9431C04F19C
:1056F0000104F3D10023CAF80830CAF80430BDE829
:10570000F087DAF80830A3EB8603CAF8083009F10D
:105710000809002BDBD10020ECE701F099FA002307
:10572000CAF80830CAF80430BDE8F0872DE9F04F18
:10573000ABB01C46009190460493059018B1836B62
:10574000002B00F0DE800098B0F90C108AB29504AE
:1057500007D4436E41F4005223F400538281436620
:1057600092B2110740F1B180009B1B69002B00F041
:10577000AC8002F01A020A2A00F0B58000230DF175
:10578000680B02930F930E93CDF834B0DA4698F875
:1057900000304446FBB1252B02D11CE0252B03D061
:1057A00014F8013F002BF9D1C8EB04059DB10E9B05
:1057B0000F9ACAF8008001332A44072BCAF8045014
:1057C0000F920E937BDD002A40F02885029B0E92FB
:1057D0002B44DA4602932378002B00F03E8400210C
:1057E0004FF000034FF0FF328DF82F3004F1010825
:1057F0006378019208460E460C4608F10108A3F1B1
:105800002002582A00F29383DFE812F04603910346
:1058100091034E039103910391039103910391032B
:1058200089026702910380006C029103C60159024C
:105830005902590259025902590259025902590290
:1058400091039103910391039103910391039103B8
:1058500091039103CB019103910391039103910370
:105860009103910391039103910314029103910316
:10587000910391039103EE029103910311039103AC
:105880009103910391039103910391039103910378
:10589000910334038A0391039103910367038A03FD
:1058A000910391036C039103790395028500E9024A
:1058B00091039B029103BA029103910353030AF1EE
:1058C000080A029B2B44029385E70099059800F093
:1058D00061FE002840F05885009B9A8902F01A0268
:1058E0000A2A7FF44BAF0099B1F90E30002BFFF676
:1058F00045AF23464246059800F016FE2BB0BDE8A2
:10590000F08F00F0F3FF1EE76442049346F00406B4
:1059100098F8003071E7302104988DF83010019923
:1059200006944FF0000378228DF82F3000290346AB
:105930008DF83120046803F104034FF0000546F0B0
:105940000202C0F2258526F0800654EA050246F0E0
:105950000206049340F0BF84B348019B002B40F043
:105960001C8499460023019303935F46019B039A8D
:105970009342B8BF13461D46B9F1000F00D0013560
:1059800016F00203079318BF023516F0840308933C
:1059900040F0F182069B5C1B002C40F3EC82102C43
:1059A00040F35685DFF88492DDF838E00F9AD4464C
:1059B0001023C2467046A8464D46DDF8149007E015
:1059C00000F1020E0CF1080C0846103C102C13DDFF
:1059D000411C103207290F92CCF80050CCF804304B
:1059E0000E91EDDD002A40F0B782103C102C1046DD
:1059F0004FF0010EDC46EBDCA94670464546D0462A
:105A0000E246224407280F92CAF80090CAF80440E0
:105A10000E9000F375839DF82F300AF1080A00F10B
:105A2000010E002B40F0B082079B002B00F0C382D8
:105A300002320CA90223BEF1070F0F92CDF838E015
:105A40008AE80A0040F37883002A40F00A84089B21
:105A5000802B4FF0010E1046DA4640F0B082069BD4
:105A60005C1B002C40F3AB82102CDFF8C49140F398
:105A70000B85D6461023C246A8464D46DDF8149045
:105A800007E000F1020C0EF1080E0846103C102C45
:105A900013DD411C103207290F92CEF80050CEF8CA
:105AA00004300E91EDDD002A40F01583103C102CDF
:105AB0004FF0010C1046DE46EBDCA9464546D046C9
:105AC000F2462244BCF1070F0F92CAF80090CAF8C0
:105AD0000440CDF838C000F3D283019B03995C1ACF
